:020000040800F2
:1000000050090020D1010008C3170008A3160008FA
:10001000C1170008CB060008111A000800000000F4
:10002000000000000000000000000000C7170008EA
:100030007908000800000000C5170008C91700086B
:10004000EB010008EB010008EB010008EB010008E0
:10005000EB010008EB010008EB010008EB010008D0
:10006000EB010008EB010008EB010008EB010008C0
:10007000EB010008EB010008EB010008EB010008B0
:10008000EB010008EB010008EB010008EB010008A0
:10009000EB010008EB010008EB010008EB01000890
:1000A000EB010008EB010008EB010008EB01000880
:1000B000EB0100082118000800000000EB01000817
:1000C000EB0100080000000000000000EB01000848
:1000D00000000000EB010008EB0100080000000038
:1000E000EB010008EB010008EB01000800F002F84A
:1000F00000F05FF80AA090E8000C82448344AAF163
:100100000107DA4501D100F054F8AFF2090EBAE860
:100110000F0013F0010F18BFFB1A43F0010318473B
:1001200068280000882800000A444FF0000C10F8EE
:10013000013B13F0070408BF10F8014B1D1108BF65
:1001400010F8015B641E05D010F8016B641E01F805
:10015000016BF9D113F0080F1EBF10F8014BAD1C55
:100160000C1B09D16D1E58BF01F801CBFAD505E073
:1001700014F8016B01F8016B6D1EF9D59142D6D3CD
:10018000704700000023002400250026103A28BFF5
:1001900078C1FBD8520728BF30C148BF0B607047F9
:1001A000642900F07180002070471FB51FBD10B595
:1001B00010BD00F050FA1146FFF7F7FF01F03AFFCB
:1001C00000F06EFA03B4FFF7F2FF03BC00F076FA1A
:1001D0000948804709480047FEE7FEE7FEE7FEE7DB
:1001E000FEE7FEE7FEE7FEE7FEE7FEE70448054917
:1001F000054A064B704700001D180008ED00000876
:100200005003002050090020500500205005002018
:100210000FB41CB5074B06AA7B44694600900598AD
:1002200000F001FA0020694600F010FA1CBC5DF8ED
:1002300014FB00003104000070B5044685690068B5
:10024000C10601D5302600E02026C00707D070BDCA
:10025000D4E9012130469047206A401C20626D1E7F
:10026000F6D570BD70B5044685690078C00707D122
:1002700070BDD4E9012120209047206A401C2062F3
:100280006D1EF6D570BD00002DE9F0410646002434
:1002900010687529314616A510D0AFF300800028EC
:1002A00002DA404213A507E031688A0701D512A59A
:1002B00002E0490704D511A5012401E0AFF3008055
:1002C00000210A2206F1240709E0B0FBF2FCB0FB92
:1002D000F2F302FB1C00303078541846491C002809
:1002E000F3D123462A463046BDE8F04100F03DB93F
:1002F000000000002D0000002B0000002000000086
:100300002DE9F05F894604464FF0000ADFF824B17A
:10031000FB44C0F820A02046E168884700287DD033
:10032000252806D0D4E901219047206A401C20628C
:10033000F1E700255F462046E16888472028064609
:1003400007DB312E05D2B81910F8200C08B105438F
:10035000F1E7A80701D525F00405C4F81CA0002783
:10036000C4F818A02A2E09D0304601F062FB38B339
:1003700004EB8708303EC8F8186019E059F8041BF0
:10038000204604EB87029161E1688847012F064609
:1003900018D1E069002820DA25F020051DE0D8F802
:1003A000180000EB800006EB40003038C8F8180059
:1003B0002046E1688847064601F03BFB0028EED165
:1003C000012F0AD02E2E08D12046E16888477F1CD5
:1003D0000646022F45F02005C4DBA069002803DA99
:1003E000404245F00105A061E80701D025F0100565
:1003F000A6B1A6F14100192802D8203645F40065BF
:100400004A463146204625604D46FFF7C9FE60B199
:10041000012807D0ED1D25F0070000E007E000F1FE
:10042000080978E705F1040975E730467AE7206A9C
:10043000BDE8F09F6026000040EA0103024630B5A7
:100440009B0710D14FF0013400E008C208C91D1B02
:100450009D4315EAC41FF8D013F0FF0102F8011BF9
:100460000DD01B0AF8E711F8013B002B02F8013B05
:1004700005D011F8013B002B02F8013BF3D130BD50
:1004800040EA010370B59B072ED14FF00136042AD4
:100490002AD308C810C99D1B9D43121F15EAC61513
:1004A00017D0D8B2E1B2401A50EA056110D198B223
:1004B000A1B2401A50EA05410AD123F07F4024F04E
:1004C0007F41401A50EA052102D1180EA0EB1460BA
:1004D00070BDA342DBD018BA21BA884201D90120ED
:1004E00070BD4FF0FF3070BD0AB9002070BD10F82C
:1004F000013B11F8014B63B1A3420AD1521E08D04F
:1005000010F8013B11F8014B1BB1A34201D1521E5F
:10051000EDD1181B70BD4FF0000200B51346944694
:100520009646203922BFA0E80C50A0E80C50B1F14B
:100530002001BFF4F7AF090728BFA0E80C5048BF5F
:100540000CC05DF804EB890028BF40F8042B08BFFD
:10055000704748BF20F8022B11F0804F18BF00F8F9
:10056000012B70477047704770472DE9F0470D46E3
:1005700099469246044600F124080168880604D58D
:10058000E06921F01001216000E00120A84201DDB6
:10059000471B00E00027A1697A1902EB0900081A3D
:1005A000A0612078C00602D42046FFF745FE002651
:1005B00008E0D4E901211AF806009047206A401C9F
:1005C000761C20624E45F4DB2078C0060AD5204612
:1005D000FFF732FE06E0D4E9012130209047206A7F
:1005E000401C2062381EA7F10107F4DC07E0D4E9C3
:1005F000012118F805009047206A401C2062281E3F
:10060000A5F10105F3DC2046FFF72CFE207800065B
:1006100002D50220BDE8F0870120FBE701694A1CF2
:1006200002610878704700B58FB0CDE90131002133
:10063000059105497944CDE9031011466846FFF755
:100640005FFE0FB000BD0000E5FFFFFF0A6802F883
:10065000010B0A607047754600F02CF8AE460500A5
:100660006946534620F00700854618B020B5FFF7CD
:10067000BDFDBDE820404FF000064FF000074FF0F1
:1006800000084FF0000B21F00701AC46ACE8C009B0
:10069000ACE8C009ACE8C009ACE8C0098D467047B9
:1006A00010B50446AFF300802046BDE81040FFF7C8
:1006B00089BD000000487047EC0200200149182065
:1006C000ABBEFEE7260002007047FEE770B50024CF
:1006D00000F02AF84FF40055124E04E0641CE4B216
:1006E000012001F0D5F92946304600F003FA10B197
:1006F000642CF3D30FE0642C0DD2002404E0641CBE
:10070000E4B2012001F0C4F92946304600F0F2F9C4
:1007100018B1642C04D3012070BD642CEFD3FAE728
:10072000002070BD000C01401FB500200190039017
:100730004FF400500090012002906946014800F0FB
:10074000F9F81FBD000C01401FB5002002904FF4C6
:100750000050009001200190032003906946024858
:1007600000F0E8F81FBD0000000C014010B500F0DB
:1007700069F8BDE81040FFF7A9BF000070B500247C
:100780004FF40055134E04E0641CE4B2012001F064
:100790007FF92946304600F0ADF908B1642CF3D357
:1007A000002404E0641CE4B2012001F071F9294640
:1007B000304600F09FF908B9642CF3D3282001F0EB
:1007C00067F92946304600F095F9002800D001204D
:1007D00070BD0000000C014070B5002004464006CA
:1007E000050EFFF7CBFF641C2843E4B2082CF6D3B8
:1007F00070BD2DE9FC410D46064600F023F8FFF7D9
:1008000065FF10B10120BDE8FC8100246F46FFF7B1
:10081000E3FF3855641CE4B2052CF8D39DF80010B2
:100820009DF801009DF803300A189DF8020003446A
:100830001A449DF804309A4201D12970307000208A
:10084000E1E7000070B5FFF77FFF0A4D4FF4005459
:1008500000222146284600F05AF9142000F058F8EA
:1008600001222146284600F052F9BDE870401E20C2
:1008700001F00EB9000C0140704772B6FEE730B5CA
:1008800000221146242001F063FDB02001F01EFD7E
:1008900000244FF40055002001F034FD641CAC42EC
:1008A000F9D3B22001F012FD0022BDE8304011461C
:1008B000242001F04DBD0000144800B54FF08051D8
:1008C00001608114016000221146402001F040FDCA
:1008D00000221021412001F03BFD0822002142208E
:1008E00001F036FD08221021432001F031FDA02047
:1008F00001F0ECFC802001F0E9FC922001F0E6FC24
:100900009F205DF804EB01F0E1BC0000100C0140F9
:1009100070B5044600F000F90546601C02D004489A
:100920000078044400F0F8F8401BA042FAD370BDF0
:100930002C0000202DE9F84FDFF89C91002409F1EC
:10094000040A0AF1040B23460F270BF1040EBBE047
:100950000125A5402A40AA4276D1DFF880C14E6821
:10096000A6EB0C0866452BD00DDC032E34D005DC3D
:1009700036B3012E19D0022E2FD11BE0112E16D026
:10098000122E2AD119E0B8F5881F19D006DCB8F567
:10099000803F15D0B8F5801F1FD111E0B8F5001FBA
:1009A0000ED0B8F5041F18D10AE0CB6815E0CB686B
:1009B0001B1D12E0CB6808330FE0CB680C330CE052
:1009C0008B682BB1012B4FF0080303D0456104E085
:1009D000042302E0056100E00023FF2A01D8064657
:1009E00001E000F104064FEA840501D9A5F12005D4
:1009F000D6F8008007FA05FC28EA0C0803FA05F58A
:100A000048EA0508C6F800804D68ED005BD5344D16
:100A1000AE6946F00106AE61AD6924F0030605F04B
:100A2000010500952F4D06EB050CDCF80850A607D4
:100A3000360F07FA06F825EA0805DFF8AC804045CE
:100A400003D14FF0000810E03DE0DFF8A080404502
:100A500002D14FF0010808E0DFF89480404502D150
:100A60004FF0020801E04FF0030808FA06F848EAE0
:100A70000508CCF808804D68D9F80060ED034D46B4
:100A800001D5164300E096432E604D68DAF8006009
:100A9000AD03554601D5164300E096432E604D68E0
:100AA000DBF80060ED025D4601D5164300E0964399
:100AB0002E604D68DEF80060AD02754601D5164324
:100AC00000E096432E60641C0A6832FA04F57FF455
:100AD0003FAFBDE8F88F0000000401400000111096
:100AE000001002400000014000080140000C0140DD
:100AF000001001408068084000D001207047C268A3
:100B000021EA02030A4043EA0241016170470AB147
:100B1000016170470904FBE70148806870470000E5
:100B20002C000020024881680278114481607047DF
:100B30002C000020074810B5016841F01001016049
:100B4000032000F06DF80F2000F006F800F024F804
:100B5000002010BD0020024070B50D4D04464FF43A
:100B60007A712878B1FBF0F00A490968B1FBF0F01E
:100B700000F0EAFA48B9102C07D200222146501E94
:100B800000F02EF800206C6070BD012070BD0000E8
:100B90002C00002038000020094808B5816941F088
:100BA00001018161816901F001010091C16941F098
:100BB0008051C161C06900F08050009008BD000004
:100BC00000100240002809DB00F01F0201219140C3
:100BD0004009800000F1E020C0F8001170470000DB
:100BE000F0B40E4B1B680C46C3F30223C3F1070598
:100BF000042D00D90425191D072901D2002300E086
:100C0000DB1E012606FA05F1491E214099409E404F
:100C1000761E16403143F0BC00F0FBBE0CED00E048
:100C2000064900F0070208684FF6FF03184040EA43
:100C30000220034A10430860704700000CED00E0FA
:100C40000000FA052DE9F0470F46050061D0434E3C
:100C5000306800F00700B84209D2306820F0070081
:100C600038433060306800F00700B84251D128683E
:100C70003B4C810712D5400703D5606840F4E06023
:100C800060602878000703D5606840F460506060B9
:100C90006068A96820F0F000084360602878C00709
:100CA00028D06868012810D02168022810D0890750
:100CB00000292EDA616821F0030101436160FFF72A
:100CC0002BFF804641F288390DE021688903EFE768
:100CD0008901EDE7FFF720FFA0EB0801494502D9A4
:100CE0000320BDE8F0876068696800F00C00B0EB95
:100CF000810FEFD1306800F00700B8420BD930689F
:100D000020F0070038433060306800F00700B84238
:100D100001D00120E5E72878400705D56068E9683B
:100D200020F4E060084360602878000706D560681A
:100D3000296920F4605040EAC100606000F03EF88C
:100D40006168084AC1F30311515CC8400649086054
:100D500006480068FFF700FF0020C2E700200240BD
:100D6000001002406C2300083800002030000020F2
:100D70000148006870470000380000200448054919
:100D800000684968044AC1F30221515CC8407047B9
:100D900038000020001002407C2300080448054968
:100DA00000684968044AC1F3C221515CC8407047D9
:100DB00038000020001002407C23000812A185B0FA
:100DC0000FC98DE80F0014A0144A00680490516800
:100DD000134801F00C03042B10D0082B0ED1C1F3E3
:100DE0008343C9031DF803000AD5516804AAC1F35F
:100DF0004041515C0A4A5043B0FBF1F005B07047E6
:100E000008494843FAE700000203040506070809F9
:100E10000A0B0C0D0E0F1010010200000010024012
:100E200000127A0000093D002DE9F84F040070D04F
:100E30002078C04DC00749D06868C0F38100012800
:100E400007D06868C0F38100022809D16868C00330
:100E500006D52868800339D560680028E7D035E0DA
:100E60006068B0F5803F0BD010B1B0F5A02F11D065
:100E7000286820F480302860286820F4802002E070
:100E8000286840F480302860606890B1FFF744FE25
:100E900006460AE0286840F480202860F0E700BF9A
:100EA000FFF73AFE801B642873D828688003F7D5C3
:100EB0000CE0FFF731FE064605E000BFFFF72CFE11
:100EC000801B6428F0D828688003F7D420789A4ED5
:100ED00080074FF001094FF0000839D5686810F01D
:100EE0000C0F07D06868C0F38100022809D1686838
:100EF000C00306D42868800714D52069012808D1CA
:100F000010E02069B0B1C6F80090FFF705FE074673
:100F100005E00AE1FFF700FEC01B0228C4D82868DC
:100F20008007F7D52868616920F0F80040EAC10021
:100F300028600DE0C6F80080FFF7EEFD074604E0EC
:100F4000FFF7EAFDC01B022823D828688007F7D4E2
:100F5000207800072CD57948A169D9B1C0F8009054
:100F6000FFF7DAFD074604E0FFF7D6FDC01B0228B5
:100F70000FD8686A8007F7D571484FF4FA510068B6
:100F8000B0FBF1F0009000BF0098411E0091FAD232
:100F90000EE080E0C0F80080FFF7BEFD074604E0E9
:100FA000FFF7BAFDC01B022875D8686A8007F7D41E
:100FB0002078400760D5E8690027C00008D4E869B8
:100FC00040F08050E861E869012700F0805000900F
:100FD0005C480168C90513D40168834641F48071F7
:100FE0000160FFF799FD824606E000BFFFF794FD20
:100FF000A0EB0A0064284ED8DBF80000C005F5D548
:10100000E06801280AD008B1052813D0286A20F02A
:1010100001002862286A20F0040002E0286A40F0FB
:1010200001002862E06841F2883B98B1FFF774FD47
:1010300082460BE0286A40F004002862EEE700BF19
:10104000FFF76AFDA0EB0A0159455AD8286A8007C4
:10105000F6D50CE0FFF760FD824605E0FFF75CFD8A
:10106000A0EB0A0159454CD8286A8007F6D41FB175
:10107000E86920F08050E861E06988B36968C1F3ED
:101080008101022944D00228C6F8608004D0FFF70D
:1010900043FD044638E034E0FFF73EFD074604E038
:1010A000FFF73AFDC01B02282BD828688001F7D42F
:1010B000206AB0F5803F05D16868A16820F400304F
:1010C00008436860D4E908010843696821F4741191
:1010D00008436860C6F86090FFF71EFD044606E00E
:1010E00025E000BFFFF718FD001B022809D828687B
:1010F0008001F7D51BE000BFFFF70EFD001B0228A3
:1011000002D90320BDE8F88F28688001F4D40EE0EE
:101110000128F7D06868226A00F48031914204D136
:10112000616A00F47010884201D00120EAE70020D3
:10113000E8E7000000100240000042428004424202
:10114000380000200070004010B5401EB0F1807FD4
:1011500001D3012010BD4FF0E02460610F21601722
:1011600000F057FC0020A06107202061002010BD86
:101170007047704770B590F83C20012A23D00124B5
:1011800080F83C40022280F83D2003685A689D6840
:1011900022F070060A6832435A600C4B02689A4289
:1011A00005D0B2F1804F02D0094B9A4204D1496870
:1011B00025F080031943916080F83D40002180F8BC
:1011C0003C10084670BD022070BD0000002C01409C
:1011D0000004004010B5040003D094F83D0010B1A5
:1011E00007E0012010BD002084F83C00204600F0FC
:1011F0001FF8022084F83D00211D206800F016FB36
:10120000012084F8460084F83E0084F83F0084F80A
:10121000400084F8410084F8420084F8430084F8D8
:10122000440084F8450084F83D00002010BD000013
:1012300008B500680B49884212D10B48C16941F0DA
:101240000201C161C069002200F002000090114655
:101250001D20FFF7C5FCBDE808401D20FFF7B2BC0C
:1012600008BD0000000400400010024090F83D104E
:10127000012901D001207047022180F83D1001684A
:10128000CA6842F00102CA6000680A49884205D073
:10129000B0F1804F02D00849884204D1816801F042
:1012A0000701062903D0016841F001010160002017
:1012B00070470000002C01400004004070B5044657
:1012C00090F83C00012817D0012584F83C500220FA
:1012D00084F83D002068826822F0770222F47F4281
:1012E00082600868502830D00DDC20284DD005DC05
:1012F00098B310283BD148E0022070BD302844D07C
:10130000402834D139E0602828D0702806D0B0F5C4
:10131000805F2CD0B0F5005F29D10AE0CB68D1E91D
:101320000121206800F0B0FA2068816841F077015F
:1013300009E0CB68D1E90121206800F0A5FA206816
:10134000816841F48041816011E0CA684968206881
:1013500000F0ACFA5021206807E016E0CA6849683E
:10136000206800F0B4FA6021206800F097FA84F851
:101370003D50002084F83C0070BDCA684968206870
:1013800000F094FA40212068EFE7226801461046F9
:10139000EBE7704770B50446006801694FF000053F
:1013A000C943890715D4C168C943890711D4E91E07
:1013B000016101202077206880698007204602D0E3
:1013C000FFF7E7FF04E000F098F8204600F096F8F9
:1013D000257720680169C943490717D4C168C94303
:1013E000490713D46FF004010161022020772068BF
:1013F000806910F4407F204602D0FFF7CAFF04E066
:1014000000F07BF8204600F079F825772068016924
:10141000C943090716D4C168C943090712D46FF03C
:1014200008010161042020772068C06980072046F8
:1014300002D0FFF7AEFF04E000F05FF8204600F0B6
:101440005DF8257720680169C943C90617D4C168CA
:10145000C943C90613D46FF0100101610820207739
:101460002068C06910F4407F204602D0FFF791FF4A
:1014700004E000F042F8204600F040F825772068AC
:101480000169C943C90708D1C168C943C90704D163
:10149000891E0161204600F033F820680169C943C4
:1014A000090609D4C168C943090605D46FF0800153
:1014B00001612046FFF75CFE20680169C9434906C7
:1014C00009D4C168C943490605D46FF040010161E0
:1014D000204600F023F820680169C94389060BD42F
:1014E000C168C943890607D46FF020010161204615
:1014F000BDE87040FFF73DBE70BD7047704700000B
:1015000000680449884203D103488168491C81600E
:10151000704700000004004000000020704770B5D4
:10152000040004D094F83D00002510B106E001202D
:1015300070BD84F83C50204600F022F8242084F846
:101540003D002068C16821F40051C160204600F0D0
:10155000D1F92068016921F4904101612068416955
:1015600021F02A0141612068C16841F40051C16045
:101570002564202084F83D0084F83E00002070BDE2
:1015800030B585B00024009401940294039400685F
:101590001449884224D11448816941F48041816111
:1015A000816901F480410491816941F00401816104
:1015B00080690E4D00F0040004904FF4007000901C
:1015C000022001900320039069462846FFF7B2F9F4
:1015D0002815CDE90004694628460294FFF7AAF9C8
:1015E00005B030BD00380140001002400008014045
:1015F0002DE9F843044690F83D001F4616460D4677
:1016000020284CD1C5B1BEB194F83C00012846D089
:10161000012084F83C004FF00008C4F840802120ED
:1016200084F83D00FFF778FAA6848146E684A06836
:10163000B0F5805F03D004E00120BDE8F8832069A5
:1016400028B12E465FF0000584F83C800EE00026AD
:10165000FAE78021204600F0A9F9A0B9AEB116F84A
:10166000010B21684860E08C401EE084E08C4B4612
:101670004FF0000200970028EBD14FF040012046C8
:1016800000F094F930B10320D7E735F8020BC0F32E
:101690000800E6E7202084F83D000020CDE7022086
:1016A000CBE7FEE770B586B00024104800940194A3
:1016B00002940394816941F00801816180690C4EB4
:1016C00000F0080041F6FF75049022462946304696
:1016D000FFF71DFA01200095CDE9010403200390D6
:1016E00069463046FFF726F906B070BD001002408B
:1016F000000C0140094808B5816941F02001816171
:10170000816901F020010091816941F0040181614A
:10171000806900F00400009008BD00000010024045
:1017200010B586B0002417480094019402940394E5
:10173000049413490594016040F28F11C0E901142B
:1017400040F2E731C0E903148461FFF743FD08B1BB
:10175000FFF793F84FF48050009069460948FFF76F
:10176000ADFD08B1FFF789F8049404A90548059474
:10177000FFF700FD002801D0FFF77FF806B010BD8D
:1017800000040040600200200C4810B50A490160C6
:101790004FF416514160002181600C22C160C0E904
:1017A00004128161C161FFF7BAFE002803D0BDE8D1
:1017B0001040FFF762B810BD00380140A8020020B9
:1017C000FEE7FEE770477047FFF7ACB910B590B081
:1017D00028216846FEF79FFE14210AA8FEF79BFE0B
:1017E000022000900120049010200024059007940E
:1017F0006846FFF719FB08B172B6FEE70F20CDE986
:101800000A040C940D9400210AA80E94FFF71AFA0A
:10181000002801D072B6FEE710B010BD704700007E
:101820000148FFF7B7BD00006002002070B50268F4
:10183000134B144C4FF08046984203D0B04201D075
:10184000A04203D122F070054A682A43984203D08F
:10185000B04201D0A04203D122F44074CA682243AE
:101860004C6922F08002224302608A68C2620A68E0
:101870008262984201D1096901630121416170BD11
:10188000002C01400004004010B5846842EA0322A5
:1018900024F47F440A432243826010BD826822F010
:1018A00070020A4342F007018160704710B5036A75
:1018B000046A24F001040462846924F0F00444EA18
:1018C000021423F00A020A438461026210BD10B5BB
:1018D000036A23F0100303628369046A23F47043EC
:1018E00043EA023224F0A00343EA0111826101625B
:1018F00010BD000070B5044600680169E26821F47B
:101900004051114301612169A0680843616908439E
:101910002168CA6841F20C639A430243CA60206896
:101920004169A26921F44071114341611E49206857
:10193000884202D1FFF732FA01E0FFF71FFA00EB0D
:10194000C00101EB0012606864218000B2FBF0F37B
:10195000B3FBF1F36FF018067343B2FBF0F5B2FB83
:10196000F0F605EB8305322303EB0515B5FBF1F526
:10197000B6FBF1F605F0F00505EB0615B2FBF0F647
:10198000B2FBF0F0B0FBF1F06FF01802504306EB41
:10199000800003EB0010B0FBF1F0216800F00F00B5
:1019A0002844886070BD0000003801402DE9F041F6
:1019B000984617460E460446069D1DE0681C1BD03F
:1019C0002DB1FFF7A9F8A0EB0800A84214D92068B0
:1019D000C16821F4D071C1602068416921F0010122
:1019E0004161202084F83D0084F83E00002084F806
:1019F0003C000320BDE8F0812068006836EA000062
:101A000004D00020B842D9D00020F3E70120F9E744
:101A1000FEE70907090E002804DB00F1E02080F84A
:101A20000014704700F00F0000F1E02080F8141D52
:101A3000704730380A2801D20120704700207047D3
:101A400070B586B000241048009401940294039469
:101A5000816941F0080181618069012200F008007C
:101A60000A4E9503049029463046FFF750F80120AE
:101A70000095CDE901040320039069463046FEF746
:101A800059FF06B070BD000000100240000C01407C
:101A900010B50446FFF76CF90349B0FBF1F161435F
:101AA000491EFDD210BD000000127A002DE9F04160
:101AB0000001A0F50070DFF83C8017460D4686B2A5
:101AC000002400BF07EB051000F50060C1B2020A58
:101AD000242000F03DFC3119C02018F8011000F05E
:101AE0002DFC6D1C641CE4B2EDB2102CEAD3BDE8F1
:101AF000F0810000842300082DE9F05F00F0BCF9BC
:101B0000C64C60702178884249D02070102848D097
:101B1000A279DFF80C8304F10C0100264FF4104B7E
:101B200001F11105F2B3012A3BD1085C512838D1EB
:101B3000A6710022594646464046FEF7E8FF0122BC
:101B40004FF410613046FEF7E2FF00222021E81D2D
:101B500000F078FB06222021B2A000F073FBE279AE
:101B6000B2A1B348FEF754FB0E222021B04800F08A
:101B700069FB00223021032000F076FB0222302195
:101B8000042000F071FB0C223021052000F06CFBDA
:101B90000E2230210620BDE8F05F00F065BB10206A
:101BA000607000E001E0BDE8F09F095CA1F1300049
:101BB00009280AD8AA792846062A06D2974B243340
:101BC000D1548179491C817108E059290DD04E29E1
:101BD000E7D198A1E81DFEF72FFCAE71002220216D
:101BE000E81DBDE8F05F00F02DBB8C4906221D31D9
:101BF000E81DFEF745FC914F4FF480494FF4FA7A07
:101C000000287AD0E0798BA1401CE071E81DFEF736
:101C100013FCAE71E07903286ED30220A07100227C
:101C200049463846FEF773FF00224FF4004138461C
:101C3000FEF76DFFE27982A17D48FEF7E9FA6423A1
:101C400009227B498148FFF7D3FC642309227849A4
:101C50007E48FFF7CDFC6423092275497B48FFF7D6
:101C6000C7FC6423092272497848FFF7C1FC64234A
:101C700009226F497548FFF7BBFCFEF700FEE378C9
:101C8000A27873A16A48FEF7C3FA00221146684899
:101C900000F0D8FA042210210A2000F0E5FA06220A
:101CA00010210B2000F0E0FA082210210C2000F097
:101CB000DBFA0A2210210D2000F0D6FA02222021A0
:101CC000002000F0D1FA04222021012000F0CCFAFB
:101CD00006222021022000F0C7FA08222021072036
:101CE00000F0C2FA0A2220210E2000F0BDFA0C22D8
:101CF00020210F204FE700E069E00120A0714DA1F5
:101D0000E81DFEF799FBAE71E67100224D4649468B
:101D10003846FEF7FCFE5046FEF7FAFD0122294642
:101D20003846FEF7F4FE0122594645464046FEF786
:101D3000EEFE00224FF410612846FEF7E8FE49A1AE
:101D40003B48FEF765FA6423092239493F48FFF70B
:101D50004FFCFEF794FDE378A2783DA13448FEF7EE
:101D600057FA00221146324800F06CFA0022102186
:101D7000104600F079FA02221021012000F074FAD6
:101D800004221021022000F06FFA0622102138A050
:101D900000F058FA00222021104600F065FA0222D5
:101DA0002021012000F060FA04222021022000F00E
:101DB0005BFA06222021072000F056FA0822202193
:101DC000104600F051FA0A2220210920E3E6002201
:101DD0004E4649463846FEF79AFE5046FEF798FDB5
:101DE000012231463846FEF792FEE27914A11048EE
:101DF000FEF70EFA642309220D491448FFF7F8FB99
:101E000000222021E81D00F01DFAE27907A1084810
:101E1000FEF7FEF90E2220210548E2E60000002030
:101E20000008014020202020202000002564200000
:101E3000400200202D2D2D2D2D2D0000000C0140E5
:101E40006572726F722025640D0A0000A8020020DE
:101E5000543A2530326443202020483A25303264F9
:101E600025250000636F72726563740D0A0000001F
:101E70003A3030310000000070B5404DFF24286832
:101E800010F0F00F77D00520FEF742FD286810F023
:101E9000F00F70D028680E22C0F3031001013848FB
:101EA00001703648083002604FF4803202602A68C0
:101EB00012F0F00F0FD1102906D0202906D04029AA
:101EC00006D0802907D105E0002404E0042402E0C4
:101ED000082400E00C240D2202604FF4003202605E
:101EE0002A6812F0F00F0FD1102906D0202906D051
:101EF000402906D0802907D105E0012404E005240B
:101F000002E0092400E00D240B2202604FF480223D
:101F100002602A6812F0F00F0FD1102906D0202994
:101F200006D0402906D0802907D105E0022404E02C
:101F3000062402E00A2400E00E24072202604FF487
:101F4000002202602A6812F0F00F10D1102906D08A
:101F5000202906D0402907D0802908D106E0032493
:101F600005E0072403E006E00B2400E00F240F2126
:101F70000160204670BD102070BD000008080140BF
:101F80003C00002030B585B0002414480094019432
:101F900002940394816941F0040181618069104DCC
:101FA00000F00400049001220F212846FEF7AFFD47
:101FB0000F2000900120CDE9010403200390694621
:101FC0002846FEF7B7FCF020CDE90004022002907D
:101FD00069462846FEF7AEFC05B030BD0010024051
:101FE0000008014070B586B00024104800940194A8
:101FF00002940394816941F00801816180690122A2
:1020000000F008000A4ED503049029463046FEF73A
:102010007EFD01200095CDE901040320039069466F
:102020003046FEF787FC06B070BD0000001002408D
:10203000000C01400025FEF77DFDFFF7C7FBFFF711
:1020400059FBFFF76DFBFFF79FFB5548FFF70EF9B4
:10205000FFF798FFFFF7F4FCFFF7C4FFFFF722FB41
:10206000FEF784FB00F0BEF8FEF726FCFEF707FC47
:10207000982000F02BF94B4C4BA15048E378A27804
:10208000FEF7C6F8002211464C4800F0DBF80022AB
:102090001021104600F0E8F802221021012000F083
:1020A000E3F804221021022000F0DEF806221021BD
:1020B00043A000F0C7F80022202104F1240000F022
:1020C000C1F8E27940A13D48FEF7A2F80E22202196
:1020D0003A4800F0B7F800223021032000F0C4F89D
:1020E00002223021042000F0BFF80C22302105200C
:1020F00000F0BAF80E223021062000F0B5F81E26B6
:10210000DFF8C8900A274FF48048A068B0FBF6F1CA
:1021100006FB1100C0B92349C91C481EFEF769FB24
:102120006079E378984203D12079A17888420BD076
:102130006371A27822711CA12048FEF769F8002281
:1021400011461E4800F07EF8A068B0FBF7F107FBCF
:10215000110008BBA078282802D8E078502812D9AE
:1021600041464846FEF7CBFC052D15D26D1CEDB25D
:1021700017A11248FEF74CF864231E220F49184895
:10218000FFF736FA08E0A079022805D0012241467F
:102190004846FEF7BCFC0025FFF7AEFCB5E70000A3
:1021A0006002002000000020543A253032644320B1
:1021B0002020483A253032642525000040020020C6
:1021C0003A3030310000000025642000000C01404E
:1021D00061626E6F726D616C54480D0A0000000000
:1021E000A802002030B585B0002414480094019462
:1021F00002940394816941F0040181618069104D6A
:1022000000F00400049022464FF410412846FEF7E7
:102210007EFC01224FF410612846FEF778FC4FF453
:10222000194000900120CDE9010403200390694684
:102230002846FEF77FFB05B030BD000000100240CD
:1022400000080140F0B515460F460646002407E099
:102250002A463946FFF72AFC6D1C641CEDB2E4B235
:10226000305D0028F4D1F0BD2DE9F04FDFF84C804F
:1022700092468B464FEA4019002500240BEB0507D8
:1022800009EB45060AEB040000EB071000F50060BF
:10229000C1B2C0F30722242000F05AF83119C0203F
:1022A00018F8011000F04AF8641CE4B2022CE9D3DB
:1022B0006D1CEDB2102DE0D3BDE8F08F3D00002085
:1022C00008B50098401C401C009008BDC1430A0698
:1022D0000B4900B54FF080630B60CB140B604B15BE
:1022E0000B60120A0A600860D8030860FFF7E8FF75
:1022F0004FF480700860800008604004086000BDF2
:10230000100C0140C1430A060B4900B54FF0806331
:102310000B60CB050B604B150B60120A0A6008605E
:10232000D8030860FFF7CCFF4FF48070086080008E
:1023300008604000086000BD100C014010B5044664
:102340000846FFF7DFFF2046BDE81040FFF7BEBF9D
:1023500030B5044615460846FFF7D4FF2846FFF778
:10236000D1FF2046BDE83040FFF7B0BF00000000BD
:102370000000000001020304060708090000000035
:102380000102030400000000000000000000000043
:1023900000000000000000101010101010100000CD
:1023A000101000000012242448000000000000006B
:1023B000000000000000001212127E2424247E245B
:1023C000242400000000083C4A4A48380C0A0A4A03
:1023D0004A3C080800000044A4A8A8B0541A2A2ABD
:1023E0004A44000000000030484848506EA49498C9
:1023F00089760000006020204000000000000000FE
:10240000000000000002040808101010101010084E
:1024100008040200004020101008080808080810EE
:1024200010204000000000001010D63838D61010E0
:102430000000000000000000000808087F080808ED
:10244000000000000000000000000000000000008C
:102450006020204000000000000000007E0000001E
:10246000000000000000000000000000000000006C
:10247000606000000000020404040808101010202E
:1024800020404000000000182442424242424242A2
:102490002418000000000008380808080808080888
:1024A000083E00000000003C4242420204081020A6
:1024B000427E00000000003C424202041804024236
:1024C000423C0000000000040C0C142424447F044F
:1024D000041F00000000007E404040784402024299
:1024E00044380000000000182440405C6242424230
:1024F000221C00000000007E420404080810101096
:10250000101000000000003C4242422418244242C5
:10251000423C00000000003844424242463A020277
:10252000241800000000000000001818000000003F
:10253000181800000000000000000010000000005B
:1025400000101010000000020408102040201008A5
:10255000040200000000000000007E00007E000079
:1025600000000000000000402010080402040810D1
:10257000204000000000003C4242620408080800BD
:102580001818000000000038445AAAAAAAAAAA5C97
:10259000423C00000000001010182828243C44424F
:1025A00042E70000000000F84444447844424242BC
:1025B00044F800000000003E42428080808080425B
:1025C00044380000000000F8444242424242424285
:1025D00044F80000000000FC424848784848404267
:1025E00042FC0000000000FC424848784848404057
:1025F00040E000000000003C44448080808E844421
:1026000044380000000000E7424242427E4242421B
:1026100042E700000000007C101010101010101095
:10262000107C00000000003E0808080808080808A0
:10263000080888F0000000EE4448507050484844B4
:1026400044EE0000000000E0404040404040404078
:1026500042FE0000000000EE6C6C6C6C6C54545434
:1026600054D60000000000C7626252524A4A4A46ED
:1026700046E2000000000038448282828282828228
:1026800044380000000000FC424242427C4040408E
:1026900040E000000000003844828282828282B2E0
:1026A0004C380600000000FC4242427C484844444A
:1026B00042E300000000003E424240201804024273
:1026C000427C0000000000FE92101010101010104C
:1026D00010380000000000E74242424242424242BB
:1026E000423C0000000000E742424424242828180D
:1026F00010100000000000D654545454546C282884
:1027000028280000000000E7422424181818242478
:1027100042E70000000000EE44442828101010108A
:10272000103800000000007E8404080810202042B9
:1027300042FC0000001E101010101010101010109D
:1027400010101E0000004020202010101008080467
:1027500004040202007808080808080808080808A5
:1027600008087800001824000000000000000000A5
:102770000000000000000000000000000000000059
:10278000000000FF006010000000000000000000DA
:10279000000000000000000000000038440C344439
:1027A0004C36000000000000C040405864424242E5
:1027B00064580000000000000000001C224040405F
:1027C000221C0000000000000602023E424242427B
:1027D000463B0000000000000000003C42427E40FA
:1027E000423C0000000000000C12107C1010101081
:1027F000107C0000000000000000003E444438400F
:102800003C42423C00000000C040405C6242424208
:1028100042E700000000003030000070101010107F
:10282000107C00000000000C0C00001C04040404D8
:102830000404447800000000C040404E48507048F6
:1028400044EE000000000010701010101010101066
:10285000107C000000000000000000FE49494949CA
:1028600049ED000000000000000000DC624242422E
:1028700042E70000000000000000003C42424242EB
:10288000423C000000000000000000D864424242C8
:10289000645840E0000000000000001A2642424256
:1028A000261A020700000000000000EE322020205F
:1028B00020F80000000000000000003E42403C0202
:1028C000427C0000000000000010107C101010106E
:1028D000120C000000000000000000C6424242420C
:1028E000463B000000000000000000EE44442828A1
:1028F0001010000000000000000000DB894A5A545C
:10290000242400000000000000000076241818189D
:10291000246E000000000000000000E7422424189C
:1029200018101060000000000000007E4408101025
:10293000227E0000000304040404040408040404C8
:10294000040403000808080808080808080808081C
:102950000808080800C02020202020201020202067
:102960002020C000205A04000000000000000000E9
:102970000000000004000008000000000000000249
:102980000001000010000000A8290008000000203D
:102990004002000028010008982B00084002002097
:1029A0001007000084010008B210181231323320E1
:1029B000343536203738392059304E511011190C22
:1029C000113A2D0121320179302324F41A02131017
:1029D000127FFE40028224094028884B141C10E715
:1029E000F0012B210802133FF81A08331817F8FCDE
:1029F000081008108820883C8864FE6402A4022421
:102A00000225FA3C06132014100D08104010403F18
:102A10007E2890450888101508FC7E84088418FCE0
:102A20001C842A842AFC4884888408FC12401815D7
:102A300040FC7C1084110822FE3C92649264FEA447
:102A4000922492240C6F2512210A02048023800410
:102A50001C3FF8010E12111B11F804111229344702
:102A6000FE80180AFF8022FC22443E4422021906FE
:102A7000101028222827A8FA104210022802440227
:102A800082181A40224811481150804043F84A08E1
:102A90000A0813F81208E20823F82208021B280289
:102AA000EC1B3FF0F219021A2002143FF020390209
:102AB0002A0402231FFC291B2E13FE1020FC1F38A2
:102AC0000920142018203020D00C27102050A020DE
:102AD000406D7FFC0820026BFFFE0A2920101420A5
:102AE00020402021102110391027FC41107910AF0F
:102AF000FE203AFB7A1E23F82A0832062302083AFF
:102B000043122303F812E01B27FC33101F402FFE53
:102B1000204028A0311022080C062420FF20247E0B
:102B20007EC482287A104A287AC6051BFFFEB41993
:102B30002E10083FF820083FF810100C11FC11046B
:102B40001104FD14110811281E15FC19443144D13B
:102B50002811281110112851442182102011243CE1
:102B6000A420A84020BD283D24FD241102200914E2
:102B7000501888110402021DFFFC108002181684F0
:102B80001E88229022A052C08C8004800884088471
:082B90001084207CDF2100000D
:04000005080000ED02
:00000001FF
