:020000040800F2
:10000000B8090020050100087F230008571D0008DB
:100010007D23000893070008492A0008000000001B
:10002000000000000000000000000000A127000800
:100030004109000800000000FB260008D527000841
:100040001F0100081F0100081F0100081F01000810
:100050001F0100081F0100081F0100081F01000800
:100060001F0100081F0100081F0100081F010008F0
:100070001F0100081F0100081F0100081F010008E0
:100080001F0100081F0100081F0100081F010008D0
:100090001F0100081F0100081F0100081F010008C0
:1000A0001F0100081F0100081F0100081F010008B0
:1000B0001F01000845280008000000001F0100087B
:1000C0001F01000800000000000000001F010008E0
:1000D000000000001F0100081F01000800000000D0
:1000E0001F0100081F0100081F010008DFF810D0E1
:1000F00000F03CFA0048004711300008AFF30080E0
:10010000B80900200648804706480047FEE7FEE79A
:10011000FEE7FEE7FEE7FEE7FEE7FEE7FEE7FEE7B7
:1001200041280008ED000008202A04DB203A21FACB
:1001300002F00021704721FA02F3D040C2F1200200
:100140009140084319467047D2B201E000F8012BF4
:10015000491EFBD270470022F6E710B513460A4647
:1001600004461946FFF7F0FF204610BD80EA010261
:1001700010B502F00043400022D04A001FD0010E0B
:1001800001EB1261C0F35600C2F3560240F40000C6
:1001900042F40002A0FB022000047F39140400D0C6
:1001A000401C50EA124001D44000491EC2B20C0665
:1001B00004EBD010401C4008802A02D003E000204D
:1001C00010BD20F00100002900DA0020184310BD06
:1001D0002DE9FE4F81EA030404F0004421F00041C0
:1001E00000944FF0000B23F0004350EA01045ED06E
:1001F00052EA03045BD0C3F30A54C1F30A552C44FA
:10020000A4F2F3340194A0FB0254C1F3130141F4AE
:100210008011C3F3130343F4801301FB024400FB7A
:10022000034E840A970A44EA815447EA8357A4FBA1
:10023000076802958D0A05FB07854FEA932C04FB9E
:100240000C542705029D4FEA065847EA1637B5EBCE
:1002500008056EEB070C870E920E47EA811742EAFB
:100260008312A7FB0201B6EB0B0164EB00042B0D1C
:1002700043EA0C335E1844EB1C50DA465146E7FB68
:100280000201C5F313044FEA0B3343EA14534FEA58
:100290000432019C43EA0603A4F10C040294009C7E
:1002A000CDE900B400F013F903B0BDE8F08F0020F1
:1002B0000146F9E72DE9F04D81EA030404F0004B13
:1002C00021F0004514464FF0000A23F0004150EAA7
:1002D000050220D054EA01021DD0C5F30A57024698
:1002E000C5F31303C1F31300C1F30A5640F480159C
:1002F00043F48013A7EB0608101BD64608F2FD381E
:1003000073EB050002D308F1010801E092185B418C
:10031000B8F1000F03DA00200146BDE8F08D00209F
:100320004FF48011064684460EE0171B73EB050759
:1003300005D3121B63EB050306434CEA010C490885
:100340004FEA300092185B4150EA0107EDD152EAC2
:10035000030012D082EA040083EA0501084305D0B5
:10036000101BAB4106D20122002306E000224FF011
:10037000004302E06FF0010253101AEB06004CEB51
:10038000085110EB0A0041EB0B01BDE8F04D00F005
:100390008FB80EB540F2334102910021CDE9001132
:1003A0000A460B4600F093F803B000BD00F000428F
:1003B00020F00040C10DC0F3160040F400007F297A
:1003C00001DA00207047962903DCC1F19601C8408C
:1003D00001E096398840002AF4D04042704701F08D
:1003E000004330B421F0004150EA010206D00A0D6A
:1003F000A2F56072C1F31301002A02DC30BC0020B8
:100400007047440F44EAC104C100E01830BC00EB5F
:10041000C25000F016B830B50B460146002020222D
:10042000012409E021FA02F59D4205D303FA02F501
:10043000491B04FA02F52844151EA2F10102F1DC61
:1004400030BD0029A8BF7047401C490008BF20F0FC
:100450000100704710B4B0FA80FC00FA0CF050EACA
:10046000010404BF10BC704749B1CCF1200421FA4B
:1004700004F411FA0CF118BF012121430843A3EB46
:100480000C01CB1D4FEA00614FEA102042BF002053
:1004900010BC704700EBC35010440029A4BF10BC2F
:1004A0007047401C490008BF20F0010010BC704795
:1004B00010B5141E73F1000408DA401C41F100016C
:1004C00092185B411A4301D120F0010010BD2DE9C3
:1004D000F04D92469B4611B1B1FA81F202E0B0FABA
:1004E00080F22032904600F053F804460F4640EA6E
:1004F0000A0041EA0B0153465A46084313D01146FD
:1005000053EA010019D0C8F140025046FFF70CFE33
:1005100005460E4650465946424600F039F8084313
:1005200005D0012004E020463946BDE8F08D0020CA
:10053000054346EAE0762C4337430A986305E40A0C
:10054000A0EB08000022FD0A44EA47540A3002D515
:1005500000200146E9E7010510196941DDE9084578
:1005600000196941BDE8F04DA2E70000064C074DB7
:1005700006E0E06840F0010394E807009847103473
:10058000AC42F6D3FFF7B6FD143A0008343A00083F
:10059000202A04DB203A00FA02F100207047914043
:1005A000C2F1200320FA03F3194390407047000082
:1005B00070B5044600688168C943C90717D18168CE
:1005C00021F00101816000F047FD05460AE000BF0F
:1005D00000F042FD401B022804D920688068C04317
:1005E000C00706D020688068C043C007F0D0002054
:1005F00070BDA06A40F01000A062E06A40F0010007
:10060000E062012070BD0000F8B5002604460096A7
:1006100000688168C943C9072DD0816841F0010194
:100620008160164816490068B0FBF1F000E0401EFA
:1006300000900028FBD100F00FFD054616E000BF3A
:1006400000F00AFD401B022810D920688068C043D2
:10065000C0070BD0A06A40F01000A062E06A40F032
:100660000100E06284F824600120F8BD2068806801
:10067000C043C007E4D10020F8BD00001C000020EA
:1006800040420F0010B5094800F082FB32210748B4
:1006900000F0E0FA054800F01DFA800504D5034893
:1006A00000F01AFA80B210BD002010BD74000020C6
:1006B00070B586B00024104800940194029403940D
:1006C000816941F00401816180690C4E00F00400F1
:1006D0004FF44045049022462946304600F0B7FCCE
:1006E00001200095CDE901040320039069463046BE
:1006F00000F0C0FB06B070BD0010024000080140D1
:1007000070B515460E46044601F0A9FBA02001F085
:1007100066FB01F0DEFB304601F061FB01F0D9FB26
:1007200001F09DFBA12001F05AFB01F0D2FB09E092
:1007300001F012FB04F8010B15B101F036FB01E0EA
:1007400001F076FB6D1EEDB2F2D2BDE8704001F013
:10075000A3BB000070B515460E46044601F07FFBB2
:10076000A02001F03CFB01F0B4FB304602E000BFEA
:1007700014F8010B01F033FB01F0ABFB6D1EEDB281
:10078000F6D201F089FBBDE870404FF4FA7002F038
:1007900047BBFEE770B5002400F02AF84FF400557F
:1007A000124E04E0641CE4B2012002F03FFB294633
:1007B000304600F03FFC10B1642CF3D30FE0642C02
:1007C0000DD2002404E0641CE4B2012002F02EFBF0
:1007D0002946304600F02EFC18B1642C04D30120C9
:1007E00070BD642CEFD3FAE7002070BD000C01400F
:1007F0001FB500200190029003904FF4005000902C
:100800006946024800F036FB1FBD0000000C0140A5
:100810001FB5002002904FF400500090012001907D
:10082000032003906946024800F024FB1FBD00002E
:10083000000C014010B500F069F8BDE81040FFF76A
:10084000A9BF000070B500244FF40055134E04E01A
:10085000641CE4B2012002F0E9FA2946304600F0B7
:10086000E9FB08B1642CF3D3002404E0641CE4B277
:10087000012002F0DBFA2946304600F0DBFB08B924
:10088000642CF3D3282002F0D1FA2946304600F038
:10089000D1FB002800D0012070BD0000000C0140F9
:1008A00070B5002004464006050EFFF7CBFF641C20
:1008B0002843E4B2082CF6D370BD2DE9FC410D4667
:1008C000064600F023F8FFF765FF10B10120BDE8F0
:1008D000FC8100246F46FFF7E3FF3855641CE4B247
:1008E000052CF8D39DF800109DF801009DF8033009
:1008F0000A189DF8020003441A449DF804309A42F5
:1009000001D1297030700020E1E7000070B5FFF7D9
:100910007FFF0A4D4FF4005400222146284600F084
:1009200096FB142000F094FA01222146284600F09C
:100930008EFBBDE870401E2002F078BA000C01402A
:10094000704772B6FEE730B500221146242002F04F
:1009500035FDB02002F0F0FC00244FF400550020DB
:1009600002F006FD641CAC42F9D3B22002F0E4FCB4
:100970000022BDE830401146242002F01FBD0000D7
:10098000144800B54FF080510160811401600022CD
:100990001146402002F012FD00221021412002F0F9
:1009A0000DFD08220021422002F008FD082210213E
:1009B000432002F003FDA02002F0BEFC802002F0E4
:1009C000BBFC922002F0B8FC9F205DF804EB02F023
:1009D000B3BC0000100C0140F8B50024009490F85E
:1009E00024202546012A12D0012280F824204A68BA
:1009F0001F23072A0DD20668776B521E02EB820274
:100A000093409F430B6893401F43776319E0022094
:100A1000F8BD06680D2A0AD2376BD21F02EB82029C
:100A200093409F430B6893401F43376309E0F76A85
:100A30000D3A02EB820293409F430B6893401F43A1
:100A4000F7620A68072306680A2A0AD3F7680A3A8F
:100A500002EB420293409F438B6893401F43F76031
:100A600008E0376902EB420293409F438B68934052
:100A70001F4337610A68102A01D0112A20D1124B76
:100A800002689A4217D193681B0219D4936843F401
:100A9000000393600968102912D10C490C4A0968B7
:100AA000B1FBF2F101EB8101490000E0491E009128
:100AB0000029FBD104E0816A41F020018162012418
:100AC00080F824502046F8BD002401401C0000207E
:100AD00040420F00806A70470068C06C7047000099
:100AE0002DE9F0414FF0000704003D467ED0A06A9A
:100AF000002628B9E66284F82460204600F07EF8DB
:100B00002046FFF755FDA16AC90600D420B1A06AAE
:100B100040F01000A06269E0A16A21F4885141F020
:100B20000201A1626268E169237B0A4347EA43014B
:100B30000A43A1684FF48077B94209D0012907D050
:100B40005FF0000194F814C0BCF1010F02D00AE07C
:100B50003946F7E7F3B1A36A43F02003A362E36ADF
:100B600043F00103E3622368D3F804C02CF4694C1A
:100B70004CEA010CC3F804C021688B68DFF870C030
:100B800003EA0C0313438B60A168B9420BD001291F
:100B900009D00CE0DFF85CC0A3690CEB43330B43D6
:100BA00043F40061DFE7218A0D05A5F58015216872
:100BB000CB6A23F470032B43CB62216889680E4B08
:100BC0001940914208D1E662A16A21F0020141F088
:100BD0000101A162BDE8F081A06A20F0020040F0AE
:100BE0001000A062E06A40F00100E0620120F1E73D
:100BF000FDF7E1FF00E0FFFFFE0E1FFF00B585B02F
:100C00000021009101910291039100680E498842F0
:100C100017D10E48816941F400718161816901F445
:100C200000710491816941F0100181618069694618
:100C300000F010000490032000900190044800F0A0
:100C400019F905B000BD0000002401400010024069
:100C5000001001402DE9F84300270D460446009797
:100C600000F0FAF9804620688168C90508D5A06AB5
:100C700040F02000A06284F824700120BDE8F883D1
:100C80004168C90503D4C06A10F4700F2AD002204D
:100C900000F078FA3B490968B1FBF0F62068036977
:100CA00039490B424FEA61014FEAA1121FD1C368D3
:100CB0004FEA611C13EA0C0F19D103690B4225D1CD
:100CC000C068104222D1142023E0681C0AD02DB144
:100CD00000F0C2F9A0EB0800A84203D92068006820
:100CE000800725D5206800688007EED52DE00369D0
:100CF0000B4202D1C168114206D0026923490A425F
:100D000006D1C068084203D1542002E0292000E047
:100D1000FC204643009816E0681C11D02DB100F06D
:100D20009BF9A0EB0800A8420AD90098B04207D26C
:100D3000A06A40F00400A06284F8247003209DE7BC
:100D40000098401C0090B042E6D321686FF012007A
:100D50000860A06A40F40070A06220688068C0F358
:100D6000424007280CD1207B50B9A06A20F4807043
:100D7000A062A06AC00403D4A06A40F00100A0628F
:100D800000207BE71C000020244992244992240083
:100D900070B5044690F8240001280DD0012084F895
:100DA00024002046FFF730FC02004FF0000005D081
:100DB00084F82400104670BD022070BDA16A40F284
:100DC0000123994341F48071A1621F4D23681F499B
:100DD000AB4218D10E6816F4702F14D0A66A46F4F0
:100DE0008016A6620E68760505D5A66A26F400561A
:100DF00046F48056A662A66AF6040AD5E66A26F08C
:100E00000606E66206E0A66A26F48016A6625E681A
:100E1000E9E7E06284F824006FF0020018602068BF
:100E20008368C3F34243072B05D1A84208D1096860
:100E300011F4702F04D0816841F480118160B9E70A
:100E4000816841F4A001F9E7002801400424014031
:100E500070B5044600F000F90546601C02D0044855
:100E60000078044400F0F8F8401BA042FAD370BDAB
:100E7000100000202DE9F84FDFF89C910024A9F123
:100E8000040B23460F2709F1040AABF1040EBBE063
:100E90000125A5402A40AA4276D1DFF880C14E68DC
:100EA000A6EB0C0866452BD00DDC032E34D005DCF8
:100EB00036B3012E19D0022E2FD11BE0112E16D0E1
:100EC000122E2AD119E0B8F5881F19D006DCB8F522
:100ED000803F15D0B8F5801F1FD111E0B8F5001F75
:100EE0000ED0B8F5041F18D10AE0CB6815E0CB6826
:100EF0001B1D12E0CB6808330FE0CB680C330CE00D
:100F00008B682BB1012B4FF0080303D0456104E03F
:100F1000042302E0056100E00023FF2A01D8064611
:100F200001E000F104064FEA840501D9A5F120058E
:100F3000D6F8008007FA05FC28EA0C0803FA05F544
:100F400048EA0508C6F800804D68ED005BD5344DD1
:100F5000AE6946F00106AE61AD6924F0030605F006
:100F6000010500952F4D06EB050CDCF80850A6078F
:100F7000360F07FA06F825EA0805DFF8AC80404589
:100F800003D14FF0000810E03DE0DFF8A0804045BD
:100F900002D14FF0010808E0DFF89480404502D10B
:100FA0004FF0020801E04FF0030808FA06F848EA9B
:100FB0000508CCF808804D68D9F80060ED024D4670
:100FC00001D5164300E096432E604D68DAF80060C4
:100FD000AD02554601D5164300E096432E604D689C
:100FE000DBF80060AD035D4601D5164300E0964393
:100FF0002E604D68DEF80060ED03754601D516439E
:1010000000E096432E60641C0A6832FA04F57FF40F
:101010003FAFBDE8F88F0000080401400000111048
:10102000001002400000014000080140000C014097
:10103000001001408068084000D001207047C2685D
:1010400021EA02030A4043EA0241016170470AB102
:10105000016170470904FBE70148806870470000A0
:1010600010000020024881680278114481607047B6
:1010700010000020074810B5016841F01001016020
:10108000032000F06DF80F2000F006F800F024F8BF
:10109000002010BD0020024070B50D4D04464FF4F5
:1010A0007A712878B1FBF0F00A490968B1FBF0F0D9
:1010B00000F0A2FB48B9102C07D200222146501E96
:1010C00000F02EF800206C6070BD012070BD0000A3
:1010D000100000201C000020094808B5816941F07B
:1010E00001018161816901F001010091C16941F053
:1010F0008051C161C06900F08050009008BD0000BF
:1011000000100240002809DB00F01F02012191407D
:101110004009800000F1E020C0F800117047000095
:10112000F0B40E4B1B680C46C3F30223C3F1070552
:10113000042D00D90425191D072901D2002300E040
:10114000DB1E012606FA05F1491E214099409E400A
:10115000761E16403143F0BC01F09CBC0CED00E063
:10116000064900F0070208684FF6FF03184040EAFE
:101170000220034A10430860704700000CED00E0B5
:101180000000FA0510B501460020234C012922D0A9
:10119000022939D010291DD161682268D20119D5E0
:1011A0001E48C1F38342C903805C0AD561681B4AAB
:1011B000C1F34041921E515C194AB2FBF1F1484320
:1011C00001E0184948436168490203D44000032103
:1011D000B0FBF1F010BD226AC2F30121012903D155
:1011E000920701D5C80310BD022905D1626A920792
:1011F00002D549F6404010BD0329FCD1216889037E
:10120000F9D54FF2244010BD00F030F96168C1F308
:101210008131491C4900DBE700100240FC33000823
:1012200000127A0000093D002DE9F84305460078D8
:10123000354CC00754D0E0690026C00008D4E069EE
:1012400040F08050E061E069012600F0805000909D
:101250002E480168C90512D40168804641F48071A6
:101260000160FFF7F9FE074605E000BFFFF7F4FE57
:10127000C01B642823D8D8F80000C005F6D5206A22
:1012800010F4407021D0A98801F4407181421CD033
:10129000206A1F49012220F440700A6000220A607F
:1012A0002062C00711D0FFF7D7FE074641F2883809
:1012B00008E000BFFFF7D0FEC11B414502D9032063
:1012C000BDE8F883206A8007F4D5206A696820F4B5
:1012D0004070084320621EB1E06920F08050E06158
:1012E0002878800705D56068A96820F44040084345
:1012F00060602878C00605D56068E96820F4800041
:10130000084360600020DBE70010024000700040EE
:10131000400442422DE9F0470F46050061D0434E9C
:10132000306800F00700B84209D2306820F00700AA
:1013300038433060306800F00700B84251D1286867
:101340003B4C810712D5400703D5606840F4E0604C
:1013500060602878000703D5606840F460506060E2
:101360006068A96820F0F000084360602878C00732
:1013700028D06868012810D02168022810D0890779
:1013800000292EDA616821F0030101436160FFF753
:1013900063FE804641F288390DE021688903EFE75A
:1013A0008901EDE7FFF758FEA0EB0801494502D996
:1013B0000320BDE8F0876068696800F00C00B0EBBE
:1013C000810FEFD1306800F00700B8420BD93068C8
:1013D00020F0070038433060306800F00700B84262
:1013E00001D00120E5E72878400705D56068E96865
:1013F00020F4E060084360602878000706D5606844
:10140000296920F4605040EAC100606000F03EF8B5
:101410006168084AC1F30311515CC840064908607D
:1014200006480068FFF738FE0020C2E700200240AF
:10143000001002400C3400081C00002014000020A2
:1014400001480068704700001C000020044805495E
:1014500000684968044AC1F30221515CC8407047E2
:101460001C000020001002401C34000804480549FC
:1014700000684968044AC1F3C221515CC840704702
:101480001C000020001002401C3400080E4A516865
:101490000E4801F00C03042B11D0082B0FD10C487F
:1014A000C1F38343C903C05C0AD55168084AC1F33C
:1014B0004041921E515C054A5043B0FBF1F0704729
:1014C00004494843704700000010024000127A00AF
:1014D000EA33000800093D002DE9F84F040070D000
:1014E0002078C04DC00749D06868C0F3810001284A
:1014F00007D06868C0F38100022809D16868C0037A
:1015000006D52868800339D560680028E7D035E023
:101510006068B0F5803F0BD010B1B0F5A02F11D0AE
:10152000286820F480302860286820F4802002E0B9
:10153000286840F480302860606890B1FFF78CFD27
:1015400006460AE0286840F480202860F0E700BFE3
:10155000FFF782FD801B642873D828688003F7D5C5
:101560000CE0FFF779FD064605E000BFFFF774FDCC
:10157000801B6428F0D828688003F7D420789A4E1E
:1015800080074FF001094FF0000839D5686810F066
:101590000C0F07D06868C0F38100022809D1686881
:1015A000C00306D42868800714D52069012808D113
:1015B00010E02069B0B1C6F80090FFF74DFD074676
:1015C00005E00AE1FFF748FDC01B0228C4D82868DF
:1015D0008007F7D52868616920F0F80040EAC1006B
:1015E00028600DE0C6F80080FFF736FD074604E0EE
:1015F000FFF732FDC01B022823D828688007F7D4E4
:10160000207800072CD57948A169D9B1C0F800909D
:10161000FFF722FD074604E0FFF71EFDC01B02286E
:101620000FD8686A8007F7D571484FF4FA510068FF
:10163000B0FBF1F0009000BF0098411E0091FAD27B
:101640000EE080E0C0F80080FFF706FD074604E0EA
:10165000FFF702FDC01B022875D8686A8007F7D41F
:101660002078400760D5E8690027C00008D4E86901
:1016700040F08050E861E869012700F08050009058
:101680005C480168C90513D40168834641F4807140
:101690000160FFF7E1FC824606E000BFFFF7DCFCDB
:1016A000A0EB0A0064284ED8DBF80000C005F5D591
:1016B000E06801280AD008B1052813D0286A20F074
:1016C00001002862286A20F0040002E0286A40F045
:1016D00001002862E06841F2883B98B1FFF7BCFC4A
:1016E00082460BE0286A40F004002862EEE700BF63
:1016F000FFF7B2FCA0EB0A0159455AD8286A8007C7
:10170000F6D50CE0FFF7A8FC824605E0FFF7A4FC45
:10171000A0EB0A0159454CD8286A8007F6D41FB1BE
:10172000E86920F08050E861E06988B36968C1F336
:101730008101022944D00228C6F8608004D0FFF756
:101740008BFC044638E034E0FFF786FC074604E0F3
:10175000FFF782FCC01B02282BD828688001F7D431
:10176000206AB0F5803F05D16868A16820F4003098
:1017700008436860D4E908010843696821F47411DA
:1017800008436860C6F86090FFF766FC044606E010
:1017900025E000BFFFF760FC001B022809D828687D
:1017A0008001F7D51BE000BFFFF756FC001B0228A5
:1017B00002D90320BDE8F88F28688001F4D40EE038
:1017C0000128F7D06868226A00F48031914204D180
:1017D000616A00F47010884201D00120EAE700201D
:1017E000E8E700000010024000004242800442424C
:1017F0001C0000200070004010B5401EB0F1807F3A
:1018000001D3012010BD4FF0E02460610F2160176B
:1018100001F040F90020A06107202061002010BDE8
:101820007047704770B590F83C20012A23D00124FE
:1018300080F83C40022280F83D2003685A689D6889
:1018400022F070060A6832435A600C4B02689A42D2
:1018500005D0B2F1804F02D0094B9A4204D14968B9
:1018600025F080031943916080F83D40002180F805
:101870003C10084670BD022070BD0000002C0140E5
:101880000004004010B5040003D094F83D0010B1EE
:1018900007E0012010BD002084F83C00204600F045
:1018A0001FF8022084F83D00211D206800F0D0FFC1
:1018B000012084F8460084F83E0084F83F0084F854
:1018C000400084F8410084F8420084F8430084F822
:1018D000440084F8450084F83D00002010BD00005D
:1018E00008B500680B49884212D10B48C16941F024
:1018F0000201C161C069002200F00200009011469F
:101900001D20FFF70DFCBDE808401D20FFF7FABBC6
:1019100008BD0000000400400010024090F83D1097
:10192000012901D001207047022180F83D10016893
:10193000CA6842F00102CA6000680A49884205D0BC
:10194000B0F1804F02D00849884204D1816801F08B
:101950000701062903D0016841F001010160002060
:1019600070470000002C01400004004070B50446A0
:1019700090F83C000025012817D0012684F83C602F
:10198000022084F83D002068826822F0770222F469
:101990007F4282600868502838D00DDC20284FD064
:1019A00005DC90B3102811D14AE0022070BD302828
:1019B00046D040280AD13BE060282FD070280DD0B7
:1019C000B0F5805F03D0B0F5005F12D0012584F838
:1019D0003D60002084F83C00284670BDCB68D1E90A
:1019E0000121206800F062FF2068816841F07701E2
:1019F00009E0CB68D1E90121206800F057FF206899
:101A0000816841F480418160E1E719E0CA68496872
:101A1000206800F05DFF5021206806E0CA68496830
:101A2000206800F066FF6021206800F049FFCEE7E3
:101A3000CA684968206800F04BFF40212068F4E73D
:101A4000226801461046F0E7704770B5044600680A
:101A500001694FF00005C943890715D4C168C9431E
:101A6000890711D4E91E016101202077206880696F
:101A70008007204602D0FFF7E7FF04E000F098F867
:101A8000204600F096F8257720680169C943490788
:101A900017D4C168C943490713D46FF00401016129
:101AA000022020772068806910F4407F204602D011
:101AB000FFF7CAFF04E000F07BF8204600F079F859
:101AC000257720680169C943090716D4C168C9434D
:101AD000090712D46FF00801016104202077206803
:101AE000C0698007204602D0FFF7AEFF04E000F097
:101AF0005FF8204600F05DF8257720680169C9434A
:101B0000C90617D4C168C943C90613D46FF01001C0
:101B10000161082020772068C06910F4407F2046CA
:101B200002D0FFF791FF04E000F042F8204600F0F9
:101B300040F8257720680169C943C90708D1C16801
:101B4000C943C90704D1891E0161204600F032F85B
:101B500020680169C943090609D4C168C943090657
:101B600005D46FF0800101612046FFF759FE20681F
:101B70000169C943490609D4C168C943490605D466
:101B80006FF040010161204600F02CF820680169E7
:101B9000C94389060BD4C168C943890607D46FF0CD
:101BA000200101612046BDE87040FFF73ABE70BDDC
:101BB00070477047084988420CD108494868401C62
:101BC0004860142806D3002048604FF48041044840
:101BD000FFF735BA70470000A40000200000002085
:101BE000000C0140704770B5040004D094F8410027
:101BF000002510B106E0012070BD84F84050204659
:101C000000F024F8242084F841002068C16821F401
:101C10000051C160204600F07FFE2068016921F478
:101C2000904101612068416921F02A0141612068E9
:101C3000C16841F40051C1606564202084F841000E
:101C400084F842006563002070BD000030B585B0A7
:101C5000002400940194029403940068144988427B
:101C600024D11448816941F480418161816901F482
:101C700080410491816941F00401816180690E4DC8
:101C800000F0040004904FF40070009002200190D6
:101C90000320039069462846FFF7ECF82815CDE9A4
:101CA0000004694628460294FFF7E4F805B030BD09
:101CB0000038014000100240000801402DE9F843BF
:101CC000044690F841001F4616460D46202802D0D3
:101CD0000220BDE8F8837DB176B100206064212048
:101CE00084F84100FFF7B8F9A6848046E684A0682E
:101CF000B0F5805F02D003E00120EAE7206910B16F
:101D00002E4600250EE000260CE08021204600F043
:101D10005FFEA0B9AEB116F8010B21684860E08CF7
:101D2000401EE084E08C43464FF0000200970028FC
:101D3000EBD14FF04001204600F04AFE30B10320C5
:101D4000C7E735F8020BC0F30800E6E7202084F867
:101D500041000020BDE7FEE770B50824002500F033
:101D6000E1FC4FF4FA7613E06806050E002000F05F
:101D7000C5FC304601F054F8304601F051F801201E
:101D800000F0BCFC304601F04BF800F0C3FC05430A
:101D9000641EE4B2E8D2002000F0B0FC304601F04E
:101DA0003FF800F0E3FC284670BD10B5002000F0BD
:101DB000D1FC4FF4FA74204601F032F8204601F0CD
:101DC0002FF8012000F09AFC204601F029F80020AD
:101DD00000F094FC2046BDE8104001F021B870B539
:101DE000054608244FF4FA7616E000F087FC3046EA
:101DF00001F016F805F0800000F0ACFC304601F070
:101E00000FF86806050E304601F00AF8012000F0D0
:101E100075FC304601F004F8641EE4B24FF0000097
:101E2000E3D200F06BFC3046BDE8704000F0F8BF34
:101E300010B5012000F08EFC4FF4FA74204600F03B
:101E4000EFFF012000F05AFC204600F0E9FF0020DF
:101E500000F054FC2046BDE8104000F0E1BF10B592
:101E6000012000F077FC4FF4FA74204600F0D8FF10
:101E7000012000F043FC204600F0D2FF002000F0DB
:101E800069FC204600F0CCFF002000F037FC204623
:101E9000BDE8104000F0C4BF10B5002000F02EFCDB
:101EA0004FF4FA74204600F0BBFF002000F052FC13
:101EB000204600F0B5FF012000F020FC204600F095
:101EC000AFFF012000F046FC2046BDE8104000F0C6
:101ED000A7BF70B5052400F025FC4FF4FA7528461D
:101EE00000F09EFF012000F009FC284600F098FF5A
:101EF00005E0641EA4B2284600F092FF6CB100F029
:101F000009FC0028F5D100F031FC002000F0F6FBC0
:101F1000284600F085FF012070BD00F027FCFFF788
:101F2000BBFF002070BD000005484FF40041016078
:101F300049100160C1060160810601607047000020
:101F40001008014004484FF000410160490C016055
:101F500049000160704700001008014004484FF438
:101F60000041016049100160810601607047000076
:101F70001008014070B586B0002414480094019404
:101F800002940394816941F0080181618069104ED7
:101F900000F0080041F6FF750490224629463046BD
:101FA000FFF755F801200095CDE9010403200390C7
:101FB00069463046FEF75EFFFEF7E2FCFEF7C3FC23
:101FC000982001F0B9F906B070BD00000010024081
:101FD000000C014010B5012000F006F8BDE81040EB
:101FE0000520FEF735BF000070B50A4C05460022FB
:101FF00020212046FFF72BF8002240212046FFF742
:1020000026F8E06865F31F20E060BDE8704000F04E
:102010006DB800000010014008B509A2022912683D
:10202000009200D30021074AD07011711DF80110F1
:102030000844C0B240F08000FFF7D6FF08BD0000A2
:10204000004014542000002070B50A4C05460122BF
:1020500020212046FEF7FBFF002240212046FEF70C
:10206000F6FFE06865F31F20E060BDE8704000F017
:102070003DB80000001001402DE9F0414FF0E02490
:10208000064660694FF47A71401CB0FBF1F5A06917
:10209000B0FBF5F0C0F57A77FEF7DEFF00EB40010C
:1020A000C1EBC01007EBC0074FEA0408D8F81800CE
:1020B000B0FBF5F0C0F57A74FEF7CEFF00EB4001FF
:1020C000C1EBC01004EBC000C01BB042EED3BDE8B2
:1020D000F08100000449087840F00400087040F0E6
:1020E0000800FFF781BF00002000002010B5094C58
:1020F000012280212046FEF7AAFF3220FFF7BCFF15
:10210000002280212046FEF7A2FFBDE810403220C9
:10211000FFF7B2BF00100140F0B585B000251B48A5
:102120000095019502950395816941F01001816147
:102130008069174F00F010004FF6E07404902A46B3
:1021400021463846FEF783FF01200226CDE90040F4
:10215000CDE9020669463846FEF78CFE0D4C182084
:10216000E570257160703820FFF73EFF0420207075
:10217000FFF7B0FFA6700620FFF736FFFFF72AFF34
:102180000520FEF765FE05B0F0BD0000001002401E
:10219000001001402000002070B51546FFF73CFFFD
:1021A000134C15E0E078102807D30020E070217967
:1021B000491CC9B22171FFF72FFF28780A280BD0DC
:1021C0000D280FD0FFF740FFE078401CE0706D1C39
:1021D00028780028E6D170BD2079401CC1B2217159
:1021E000E07801E021790020FFF716FFEFE700001B
:1021F00020000020FEB500251748009501951549DF
:102200000295016089158160057301240475022619
:1022100006614FF460214560C0E90641FEF760FCAD
:1022200008B1FEF78EFB0A208DE8310069460A48A6
:10223000FEF7D2FB08B1FEF784FB0B20CDE90006C8
:1022400069460548FEF7C8FB002801D0FEF779FB78
:10225000FEBD0000002401407400002070B586B06F
:1022600000241C480094019402940394816941F075
:1022700020018161816901F020010491816941F0AF
:1022800010018161816901F010010491816941F0BF
:1022900008018161816901F008010491816941F0BF
:1022A000040181618069012200F004000A4E950357
:1022B000049029463046FEF7CAFE01200095CDE97C
:1022C00001040220039069463046FEF7D3FD06B0B4
:1022D00070BD000000100240000C014010B586B037
:1022E0000024174800940194029403940494134921
:1022F0000594016040F28F11C0E9011440F2E7310A
:10230000C0E903148461FFF7BDFA08B1FEF719FBB9
:102310004FF48050009069460948FFF727FB08B149
:10232000FEF70FFB049404A905480594FFF77AFA19
:10233000002801D0FEF705FB06B010BD00040040E8
:10234000A40000200C4810B50A4901604FF4165152
:102350004160002181600C22C160C0E904128161EA
:10236000C161FFF740FC002803D0BDE81040FEF734
:10237000E8BA10BD00380140EC000020FEE7FEE79F
:1023800010B40021084B0A465FF0000003EBC004C4
:10239000401CC0B262548028F8D3491CC9B2082935
:1023A000F2D310BC00F05AB9340100202DE9F84FE7
:1023B00016460F4680460025144602FB06F951E0FA
:1023C00008EB0500A7EB040A00900AF0FF01C0B279
:1023D000012200F09BF8A8EB050B0AF0FF010BF0BF
:1023E000FF00012200F092F807EB040A0AF0FF0157
:1023F0000BF0FF00012200F089F800980AF0FF01BD
:10240000C0B2012200F082F87819C1B208EB040AC8
:1024100000900AF0FF00012200F078F8A7EB050B0E
:102420000BF0FF010AF0FF00012200F06FF8A8EBAB
:10243000040A0BF0FF010AF0FF00012200F066F829
:1024400000980122C1B20AF0FF0000F05FF86D1C95
:1024500005FB05F004FB040006FB1600002801DD67
:10246000641E6D1E600060434845A9DABDE8F88F20
:102470002DE9FE4F151ACDE900104FF000085E1A45
:1024800047464FF0FF30002D02DD4FF0010102E022
:1024900003D14FF000018B4602E08346C5F10005F1
:1024A000002E02DD4FF0010002E003D14FF00000EA
:1024B000824602E08246C5F10006B54201DD2C46A7
:1024C00000E03446601C4FF00009029019E00098CB
:1024D0000C9AC1B20198C0B200F018F8A844374471
:1024E000A04504DD0198A8EB040858440190A742D8
:1024F00003DD00983F1B5044009009F101001FFAD2
:1025000080F902998945E2DBBDE8FE8F30B5CC0841
:1025100001F0070301259D40EBB2064D05EBC00518
:10252000C808285C0AB1184302E063EA0000C0430F
:10253000285530BD3401002070B586B000244548D0
:102540000094019402940394816941F00401816133
:102550008069414E00F004004FF44045049022464B
:1025600029463046FEF773FD01200095CDE90104B0
:102570000320039069463046FEF77CFC0021AE2024
:1025800000F0A0F80021084600F09CF8002110207F
:1025900000F098F80021402000F094F800218120FC
:1025A00000F090F80021CF2000F08CF80021A1204D
:1025B00000F088F80021C82000F084F80021A6204F
:1025C00000F080F80021A82000F07CF800213F20D6
:1025D00000F078F80021D32000F074F800210846BC
:1025E00000F070F80021D52000F06CF80021802068
:1025F00000F068F80021D92000F064F80021F120F3
:1026000000F060F80021DA2000F05CF800211220D0
:1026100000F058F80021DB2000F054F800213020B1
:1026200000F050F80021202000F04CF8002102209A
:1026300000F048F800218D2000F044F8002114201B
:1026400000F040F8FFF79CFE0021AF2000F03AF8C0
:1026500006B070BD001002400008014070B5184E71
:10266000002400BF04F1B000C0B2002100F02AF83D
:102670000021084600F026F80021102000F022F882
:10268000FFF752FC782000F08DF8FFF767FC402040
:1026900000F088F8FFF762FC5FF0000506EBC5006C
:1026A000005D00F07FF8FFF759FC6D1CEDB2802D46
:1026B000F4D3FFF747FC641CE4B2082CD2D370BDFE
:1026C0003401002030B50C460546FFF72DFC78207C
:1026D00000F068F8FFF742FC0CB1402000E0002059
:1026E00000F060F8FFF73AFC284600F05BF8FFF7CF
:1026F00035FCBDE83040FFF725BC7047044B4FF474
:10270000804108B1012200E000221846FEF79FBC7C
:10271000000801404FF400410148FEF78BBC000067
:10272000000801407FB500240122094ED503009422
:1027300001940294294630460394FEF788FCCDE9C3
:102740000054694630460294FEF794FB7FBD0000BA
:1027500000080140044B4FF4004108B1012200E0A1
:1027600000221846FEF773BC000801407FB5002424
:1027700001220A4ED5030094019402942946304662
:102780000394FEF764FC11200095CDE901040220BA
:10279000039069463046FEF76DFB7FBD000801409F
:1027A00070470000F0B54FF40044094A00212504A9
:1027B00066109306070601D5146000E015601660E8
:1027C00013604006491C000EC9B20829F2D3F0BDBF
:1027D00010080140FEF746BC30B593B0282168468A
:1027E000FDF7B9FC14210AA8FDF7B5FC002401206F
:1027F0000F940225049000951020119405901094D8
:10280000129407946846FEF767FE08B172B6FEE7B9
:102810000F20CDE90A040C940D9400210AA80E940F
:10282000FEF778FD08B172B6FEE70FA80F95119478
:10283000FEF7FAFC002801D072B6FEE713B030BDF7
:10284000704700000148FFF700B90000A400002015
:1028500070B50268134B144C4FF08046984203D079
:10286000B04201D0A04203D122F070054A682A4349
:10287000984203D0B04201D0A04203D122F4407468
:10288000CA6822434C6922F08002224302608A68AF
:10289000C2620A688262984201D10969016301211A
:1028A000416170BD002C01400004004010B58468F7
:1028B00042EA032224F47F440A432243826010BD8B
:1028C000826822F070020A4342F00701816070477B
:1028D00010B5036A046A24F001040462846924F0D8
:1028E000F00444EA021423F00A020A4384610262FB
:1028F00010BD10B5036A046A24F0100404628469F0
:1029000023F0A00324F4704444EA023243EA0111A4
:102910008261016210BD000070B504460068016963
:10292000E26821F44051114301612169A068084324
:10293000616908432168CA6841F20C639A43024303
:10294000CA6020684169A26921F440711143416164
:102950001E492068884202D1FEF788FD01E0FEF79B
:1029600075FD00EBC00101EB00126068642180007E
:10297000B2FBF0F3B3FBF1F36FF018067343B2FB55
:10298000F0F5B2FBF0F605EB8305322303EB0515FA
:10299000B5FBF1F5B6FBF1F605F0F00505EB061514
:1029A000B2FBF0F6B2FBF0F0B0FBF1F06FF0180202
:1029B000504306EB800003EB0010B0FBF1F0216800
:1029C00000F00F002844886070BD0000003801400E
:1029D0002DE9F041984617460E460446069D27E02D
:1029E000681C25D02DB1FEF737FBA0EB0800A842EC
:1029F0001ED920680C3050E8001F21F4D07140E847
:102A00000012002AF5D12068143050E8001F21F090
:102A1000010140E80012002AF5D1202084F841008D
:102A200084F84200002084F840000320BDE8F081D3
:102A30002068006836EA000004D00020B842CFD0F9
:102A40000020F3E70120F9E7FEE700000FB4054B93
:102A500010B503A9044A029800F03CF810BC5DF8D8
:102A600014FB0000952E0008300000200FB4084B26
:102A700010B504A902AA039800F02CF8044602A994
:102A8000002000F0C8F9204610BC5DF814FB0000DF
:102A9000172E00080907090E002804DB00F1E020CA
:102AA00080F80014704700F00F0000F1E02080F87B
:102AB000141D704702E008C8121F08C1002AFAD18D
:102AC00070477047002001E001C1121F002AFBD1AE
:102AD000704700002DE9FF4F8BB088460546002661
:102AE00006E025280BD0DDE90D1290476D1C761C01
:102AF00028780028F5D10FB03046BDE8F08F0024CB
:102B0000A146A2460122AE4900E0044315F8013F68
:102B1000203B02FA03F00842F7D128782A2810D087
:102B20006FF02F022878A0F13001092915D809EBA0
:102B3000890102EB410144F0020400EB01096D1C24
:102B4000F0E758F8041B5FEA010903D544F4005488
:102B5000C9F1000944F002046D1C28782E2817D111
:102B600015F8010F44F004042A280ED06FF02F024C
:102B70002878A0F1300109290AD80AEB8A0102EB72
:102B8000410100EB010A6D1CF2E758F804AB6D1C23
:102B900028786C280FD006DC4C2817D068280DD078
:102BA0006A2814D104E0742810D07A280FD10DE0DF
:102BB00044F400140AE044F4801401E044F44014A6
:102BC0006978814202D104F580146D1C6D1C28784F
:102BD000692865D006DC00288DD0632827D06428BA
:102BE00006D15DE06E2808D073282AD0752877D0EA
:102BF000DDE90D129047761CE0E0C4F30250022894
:102C000009D003280DD0D8F8001004280DD00E608C
:102C100008F10408D2E0D8F80010F217C1E9006208
:102C2000F6E7D8F800100E80F2E70E70F0E718F81B
:102C3000041B8DF8001000208DF80100EB460120E8
:102C400003E058F804BB4FF0FF3061074FF0000776
:102C500001D40AE07F1C57450DDA8742FADB1BF8E6
:102C600007100029F6D106E07F1C8742FCDB1BF829
:102C700007100029F8D1DDE90D23A9EB07008146F3
:102C8000214600F0B1F83044C61904E0DDE90D1228
:102C90001BF8010B90477F1EF8D22146484688E07A
:102CA00058F8040BC4F302514FF00A0B032900D16A
:102CB00000B2042900D140B2002802DA40422D219E
:102CC00002E0210505D52B218DF82410012104E017
:102CD00006E0E10710D02021F6E708AF089113E0E5
:102CE00058F8040BC4F302514FF00A0B032900D12A
:102CF00080B2042900D1C0B20021EEE75946FDF7A9
:102D00008AFB303107F8011D0028F7D1ADEB070031
:102D100000F1200B600702D524F4803401E04FF06D
:102D2000010ADA4502DDAAEB0B0000E00020824632
:102D300000EB0B0108980144A9EB01000A90E003A5
:102D400006D4DDE90D2321460A9800F04DF806442B
:102D50004FF0000908E009A911F80900DDE90D129A
:102D6000904709F10109761C08998945F3DBE003D6
:102D70000CD5DDE90D2321460A9800F035F806440C
:102D800004E0DDE90D1230209047761CBAF1000115
:102D9000AAF1010AF5DC05E0DDE90D1217F8010BD7
:102DA0009047761CBBF10001ABF1010BF4DC0A98F3
:102DB0002146DDE90D2300F005F806446D1C97E679
:102DC000092801002DE9F041044600251E4617465A
:102DD000880404D405E039462020B0476D1C641EE9
:102DE000F9D52846BDE8F0812DE9F04104460025DB
:102DF0001E469046C80301D5302700E020278804EE
:102E000004D505E041463846B0476D1C641EF9D52F
:102E10002846BDE8F0810A68531C0B6010707047AB
:102E2000002100E0491C8142FCD3704710B50446E4
:102E3000FEF706FB0349B0FBF1F16143491EFDD2E9
:102E400010BD000000127A002DE9F0410001A0F54C
:102E50000070DFF83C8017460D4686B2002400BFA4
:102E600007EB051000F50060C1B2020A242000F053
:102E7000A5FA3119C02018F8011000F095FA6D1C60
:102E8000641CE4B2EDB2102CEAD3BDE8F08100007E
:102E90002434000813B54FF6FF7301226946024837
:102EA000FEF70CFF00981CBDEC00002070B53F4DF4
:102EB000FF24286810F0F00F75D00520FDF7C8FF3B
:102EC000286810F0F00F6ED028680E22C0F30310AF
:102ED00001013648083002604FF4803202602A68EF
:102EE00012F0F00F0FD1102906D0202906D040296A
:102EF00006D0802907D105E0002404E0042402E084
:102F0000082400E00C240D2202604FF4003202601D
:102F10002A6812F0F00F0FD1102906D0202906D010
:102F2000402906D0802907D105E0012404E00524CA
:102F300002E0092400E00D240B2202604FF48022FD
:102F400002602A6812F0F00F0FD1102906D0202954
:102F500006D0402906D0802907D105E0022404E0EC
:102F6000062402E00A2400E00E24072202604FF447
:102F7000002202602A6812F0F00F10D1102906D04A
:102F8000202906D0402906D0802908D106E0032454
:102F900005E0072403E00B2401E004E00F240F21E7
:102FA0000160204670BD102070BD0000080801407F
:102FB00030B585B000241448009401940294039421
:102FC000816941F0040181618069104D00F00400C5
:102FD000049001220F212846FEF739F80F200090B7
:102FE0000120CDE901040320039069462846FDF73E
:102FF00041FFF020CDE900040220029069462846F6
:10300000FDF738FF05B030BD001002400008014058
:103010008AB0774B0DF1080C0FCB8CE80F00FEF750
:1030200029F8FFF7D9FBFFF719F9FFF757F9FFF771
:1030300089F9FFF7DFF86F48FEF770FCFFF76CF8CF
:10304000FEF798FFFDF734FBFFF776FAFDF7F2FB8A
:10305000FFF7AEFF00F042F940F2DC5ADFF898913A
:10306000FFF724FF89F8000099F801104C468142CF
:103070007DD06070102836D0012520237F2219468C
:1030800000200095FFF7F4F940223F23002110466D
:103090000095FFF7EDF9012232210320FFF736FA00
:1030A0001C221E213F20FFF781F9FFF7D7FA217874
:1030B00052A0FFF7CBFC227854A15848FFF7D6FC6A
:1030C00000221021554800F0CDF8544A012100207B
:1030D000FFF762F82078072805D8C0EB001000EB56
:1030E000400000F0D1F8FDF7B7FFB0FBFAF20AFBA1
:1030F00012000028B4D11022002102A8FDF72AFBFB
:103100001022002106A8FDF7FBFA06A944A0FFF74C
:103110009DFC3949C91C481EFDF7CFFBE278A17818
:1031200041A0FFF793FCE378A27842A13B48FFF768
:103130009DFC00221146394800F094F80021374ADE
:103140000846FFF729F8FDF79DFAFDF722F93C4EF6
:103150004FF066352A463346FDF73AF8394F0022DC
:103160003B46FDF7A7F8FDF73AF9A06000E03BE029
:10317000FDF788FAFDF70DF92A463346FDF728F8E2
:1031800000223B46FDF796F8FDF729F9DFF8B880F5
:1031900005464146E060FCF7E9FFFDF707F96427C3
:1031A00090FBF7F107FB11062846FDF7FFF80546EF
:1031B000A06841460446FCF7D9FFFDF7F7F890FBFD
:1031C000F7F107FB11072046FDF7F0F8CDE90056AF
:1031D00002463B461DA11148FFF748FC0022202172
:1031E0000E4800F03FF83BE7102020707BE700001E
:1031F000D8330008A4000020000000206B65795F30
:1032000076616C75653A25640D0A00006B65795F1F
:1032100076616C75653A256420200000340000203A
:1032200025730D0A00000000543A25642C483A2505
:10323000640D0A00543A25642C483A256420200085
:1032400066660A4000FEAF400000C84256313A258B
:1032500031642E253032642C56323A2531642E25C5
:1032600030326400F0B515460F460646002407E0EC
:103270002A463946FFF7E8FD6D1C641CEDB2E4B246
:10328000305D0028F4D1F0BD2D21B0FBF1F070B518
:10329000104DC4B2104E285D4FF4807100F0010251
:1032A0003046FDF7D4FE285DF11400F002023046EE
:1032B000FDF7CDFE285DB11400F004023046FDF7A5
:1032C000C6FE285D711400F008023046BDE870406B
:1032D000FDF7BDBE250000200008014070B586B096
:1032E000002410480094019402940394816941F0F1
:1032F0000401816180690C4E00F004004FF46455B4
:103300000490224629463046FDF7A1FE0120009593
:10331000CDE901040320039069463046FDF7AAFD7C
:1033200006B070BD001002400008014008B50098CA
:10333000401C401C009008BDC1430A060B4900B563
:103340004FF080630B60CB140B604B150B60120ABF
:103350000A600860D8030860FFF7E8FF4FF4807048
:103360000860800008604004086000BD100C014047
:10337000C1430A060B4900B54FF080630B60CB05D3
:103380000B604B150B60120A0A600860D8030860D6
:10339000FFF7CCFF4FF480700860800008604000A9
:1033A000086000BD100C014010B504460846FFF748
:1033B000DFFF2046BDE81040FFF7BEBF30B5044632
:1033C00015460846FFF7D4FF2846FFF7D1FF2046F1
:1033D000BDE83040FFF7B0BF5768617427732075B0
:1033E00070206775793F000001020203040506079B
:1033F00008090A0B0C0D0E0F101001020203040540
:10340000060708090A0B0C0D0E0F10100000000033
:103410000000000001020304060708090000000084
:103420000102030400000000000000000000000092
:10343000000000000000001010101010101000001C
:1034400010100000001224244800000000000000BA
:10345000000000000000001212127E2424247E24AA
:10346000242400000000083C4A4A48380C0A0A4A52
:103470004A3C080800000044A4A8A8B0541A2A2A0C
:103480004A44000000000030484848506EA4949818
:10349000897600000060202040000000000000004D
:1034A000000000000002040808101010101010089E
:1034B000080402000040201010080808080808103E
:1034C00010204000000000001010D63838D6101030
:1034D0000000000000000000000808087F0808083D
:1034E00000000000000000000000000000000000DC
:1034F0006020204000000000000000007E0000006E
:1035000000000000000000000000000000000000BB
:10351000606000000000020404040808101010207D
:1035200020404000000000182442424242424242F1
:1035300024180000000000083808080808080808D7
:10354000083E00000000003C4242420204081020F5
:10355000427E00000000003C424202041804024285
:10356000423C0000000000040C0C142424447F049E
:10357000041F00000000007E4040407844020242E8
:1035800044380000000000182440405C624242427F
:10359000221C00000000007E4204040808101010E5
:1035A000101000000000003C424242241824424215
:1035B000423C00000000003844424242463A0202C7
:1035C000241800000000000000001818000000008F
:1035D00018180000000000000000001000000000AB
:1035E00000101010000000020408102040201008F5
:1035F000040200000000000000007E00007E0000C9
:103600000000000000000040201008040204081020
:10361000204000000000003C42426204080808000C
:103620001818000000000038445AAAAAAAAAAA5CE6
:10363000423C00000000001010182828243C44429E
:1036400042E70000000000F844444478444242420B
:1036500044F800000000003E4242808080808042AA
:1036600044380000000000F84442424242424242D4
:1036700044F80000000000FC4248487848484042B6
:1036800042FC0000000000FC4248487848484040A6
:1036900040E000000000003C44448080808E844470
:1036A00044380000000000E7424242427E4242426B
:1036B00042E700000000007C1010101010101010E5
:1036C000107C00000000003E0808080808080808F0
:1036D000080888F0000000EE444850705048484404
:1036E00044EE0000000000E04040404040404040C8
:1036F00042FE0000000000EE6C6C6C6C6C54545484
:1037000054D60000000000C7626252524A4A4A463C
:1037100046E2000000000038448282828282828277
:1037200044380000000000FC424242427C404040DD
:1037300040E000000000003844828282828282B22F
:103740004C380600000000FC4242427C4848444499
:1037500042E300000000003E4242402018040242C2
:10376000427C0000000000FE92101010101010109B
:1037700010380000000000E742424242424242420A
:10378000423C0000000000E742424424242828185C
:1037900010100000000000D654545454546C2828D3
:1037A00028280000000000E74224241818182424C8
:1037B00042E70000000000EE4444282810101010DA
:1037C000103800000000007E840408081020204209
:1037D00042FC0000001E10101010101010101010ED
:1037E00010101E00000040202020101010080804B7
:1037F00004040202007808080808080808080808F5
:1038000008087800001824000000000000000000F4
:1038100000000000000000000000000000000000A8
:10382000000000FF00601000000000000000000029
:10383000000000000000000000000038440C344488
:103840004C36000000000000C04040586442424234
:1038500064580000000000000000001C22404040AE
:10386000221C0000000000000602023E42424242CA
:10387000463B0000000000000000003C42427E4049
:10388000423C0000000000000C12107C10101010D0
:10389000107C0000000000000000003E444438405E
:1038A0003C42423C00000000C040405C6242424258
:1038B00042E70000000000303000007010101010CF
:1038C000107C00000000000C0C00001C0404040428
:1038D0000404447800000000C040404E4850704846
:1038E00044EE0000000000107010101010101010B6
:1038F000107C000000000000000000FE494949491A
:1039000049ED000000000000000000DC624242427D
:1039100042E70000000000000000003C424242423A
:10392000423C000000000000000000D86442424217
:10393000645840E0000000000000001A26424242A5
:10394000261A020700000000000000EE32202020AE
:1039500020F80000000000000000003E42403C0251
:10396000427C0000000000000010107C10101010BD
:10397000120C000000000000000000C6424242425B
:10398000463B000000000000000000EE44442828F0
:103990001010000000000000000000DB894A5A54AB
:1039A00024240000000000000000007624181818ED
:1039B000246E000000000000000000E742242418EC
:1039C00018101060000000000000007E4408101075
:1039D000227E000000030404040404040804040418
:1039E000040403000808080808080808080808086C
:1039F0000808080800C020202020202010202020B7
:103A00002020C000205A0400000000000000000038
:103A100000000000343A00080000002034000000DC
:103A2000B42A0008683A0008340000208409000025
:103A3000C42A000800000000000000000000000090
:103A40000000000001000000100000000000000065
:103A50000024F4000000000000030206040C080922
:083A600001000000000000005D
:04000005080000ED02
:00000001FF
